{
  "contractName": "ProductFactory",
  "abi": [
    {
      "anonymous": false,
      "inputs": [
        {
          "components": [
            {
              "internalType": "string",
              "name": "id",
              "type": "string"
            },
            {
              "internalType": "string",
              "name": "code",
              "type": "string"
            },
            {
              "internalType": "string",
              "name": "name",
              "type": "string"
            },
            {
              "internalType": "string",
              "name": "agency",
              "type": "string"
            },
            {
              "internalType": "string",
              "name": "number",
              "type": "string"
            },
            {
              "internalType": "string",
              "name": "price",
              "type": "string"
            },
            {
              "internalType": "string",
              "name": "dueDate",
              "type": "string"
            },
            {
              "internalType": "string",
              "name": "category",
              "type": "string"
            },
            {
              "internalType": "string",
              "name": "description",
              "type": "string"
            },
            {
              "internalType": "string",
              "name": "employee",
              "type": "string"
            }
          ],
          "indexed": false,
          "internalType": "struct ProductFactory.Product",
          "name": "product",
          "type": "tuple"
        },
        {
          "indexed": true,
          "internalType": "uint256",
          "name": "index",
          "type": "uint256"
        }
      ],
      "name": "SubmitProduct",
      "type": "event"
    },
    {
      "inputs": [
        {
          "internalType": "uint256",
          "name": "",
          "type": "uint256"
        }
      ],
      "name": "products",
      "outputs": [
        {
          "internalType": "string",
          "name": "id",
          "type": "string"
        },
        {
          "internalType": "string",
          "name": "code",
          "type": "string"
        },
        {
          "internalType": "string",
          "name": "name",
          "type": "string"
        },
        {
          "internalType": "string",
          "name": "agency",
          "type": "string"
        },
        {
          "internalType": "string",
          "name": "number",
          "type": "string"
        },
        {
          "internalType": "string",
          "name": "price",
          "type": "string"
        },
        {
          "internalType": "string",
          "name": "dueDate",
          "type": "string"
        },
        {
          "internalType": "string",
          "name": "category",
          "type": "string"
        },
        {
          "internalType": "string",
          "name": "description",
          "type": "string"
        },
        {
          "internalType": "string",
          "name": "employee",
          "type": "string"
        }
      ],
      "stateMutability": "view",
      "type": "function",
      "constant": true
    },
    {
      "inputs": [
        {
          "components": [
            {
              "internalType": "string",
              "name": "id",
              "type": "string"
            },
            {
              "internalType": "string",
              "name": "code",
              "type": "string"
            },
            {
              "internalType": "string",
              "name": "name",
              "type": "string"
            },
            {
              "internalType": "string",
              "name": "agency",
              "type": "string"
            },
            {
              "internalType": "string",
              "name": "number",
              "type": "string"
            },
            {
              "internalType": "string",
              "name": "price",
              "type": "string"
            },
            {
              "internalType": "string",
              "name": "dueDate",
              "type": "string"
            },
            {
              "internalType": "string",
              "name": "category",
              "type": "string"
            },
            {
              "internalType": "string",
              "name": "description",
              "type": "string"
            },
            {
              "internalType": "string",
              "name": "employee",
              "type": "string"
            }
          ],
          "internalType": "struct ProductFactory.Product",
          "name": "product",
          "type": "tuple"
        }
      ],
      "name": "createProduct",
      "outputs": [],
      "stateMutability": "nonpayable",
      "type": "function"
    },
    {
      "inputs": [],
      "name": "getAllProduct",
      "outputs": [
        {
          "components": [
            {
              "internalType": "string",
              "name": "id",
              "type": "string"
            },
            {
              "internalType": "string",
              "name": "code",
              "type": "string"
            },
            {
              "internalType": "string",
              "name": "name",
              "type": "string"
            },
            {
              "internalType": "string",
              "name": "agency",
              "type": "string"
            },
            {
              "internalType": "string",
              "name": "number",
              "type": "string"
            },
            {
              "internalType": "string",
              "name": "price",
              "type": "string"
            },
            {
              "internalType": "string",
              "name": "dueDate",
              "type": "string"
            },
            {
              "internalType": "string",
              "name": "category",
              "type": "string"
            },
            {
              "internalType": "string",
              "name": "description",
              "type": "string"
            },
            {
              "internalType": "string",
              "name": "employee",
              "type": "string"
            }
          ],
          "internalType": "struct ProductFactory.Product[]",
          "name": "",
          "type": "tuple[]"
        }
      ],
      "stateMutability": "view",
      "type": "function",
      "constant": true
    },
    {
      "inputs": [
        {
          "components": [
            {
              "internalType": "string",
              "name": "id",
              "type": "string"
            },
            {
              "internalType": "string",
              "name": "code",
              "type": "string"
            },
            {
              "internalType": "string",
              "name": "name",
              "type": "string"
            },
            {
              "internalType": "string",
              "name": "agency",
              "type": "string"
            },
            {
              "internalType": "string",
              "name": "number",
              "type": "string"
            },
            {
              "internalType": "string",
              "name": "price",
              "type": "string"
            },
            {
              "internalType": "string",
              "name": "dueDate",
              "type": "string"
            },
            {
              "internalType": "string",
              "name": "category",
              "type": "string"
            },
            {
              "internalType": "string",
              "name": "description",
              "type": "string"
            },
            {
              "internalType": "string",
              "name": "employee",
              "type": "string"
            }
          ],
          "internalType": "struct ProductFactory.Product",
          "name": "product",
          "type": "tuple"
        },
        {
          "internalType": "uint256",
          "name": "index",
          "type": "uint256"
        }
      ],
      "name": "updateProduct",
      "outputs": [],
      "stateMutability": "nonpayable",
      "type": "function"
    }
  ],
  "bytecode": "0x608060405234801561001057600080fd5b50611d58806100206000396000f3fe608060405234801561001057600080fd5b506004361061004c5760003560e01c806311d1e8d6146100515780631b3862b21461006d5780637acc0b2014610089578063d055a75f146100c2575b600080fd5b61006b600480360381019061006691906113b5565b6100e0565b005b61008760048036038101906100829190611411565b61022c565b005b6100a3600480360381019061009e919061145a565b61037d565b6040516100b99a99989796959493929190611506565b60405180910390f35b6100ca610931565b6040516100d7919061180d565b60405180910390f35b81600082815481106100f5576100f461182f565b5b90600052602060002090600a020160008201518160000190816101189190611a6a565b50602082015181600101908161012e9190611a6a565b5060408201518160020190816101449190611a6a565b50606082015181600301908161015a9190611a6a565b5060808201518160040190816101709190611a6a565b5060a08201518160050190816101869190611a6a565b5060c082015181600601908161019c9190611a6a565b5060e08201518160070190816101b29190611a6a565b506101008201518160080190816101c99190611a6a565b506101208201518160090190816101e09190611a6a565b509050506001816101f19190611b6b565b7f2f1aa847daf81a7d395182040098920175da1c4e149ea0856b39dceaccf0aef3836040516102209190611cb8565b60405180910390a25050565b60008190806001815401808255809150506001900390600052602060002090600a0201600090919091909150600082015181600001908161026d9190611a6a565b5060208201518160010190816102839190611a6a565b5060408201518160020190816102999190611a6a565b5060608201518160030190816102af9190611a6a565b5060808201518160040190816102c59190611a6a565b5060a08201518160050190816102db9190611a6a565b5060c08201518160060190816102f19190611a6a565b5060e08201518160070190816103079190611a6a565b5061010082015181600801908161031e9190611a6a565b506101208201518160090190816103359190611a6a565b505050600080805490509050807f2f1aa847daf81a7d395182040098920175da1c4e149ea0856b39dceaccf0aef3836040516103719190611cb8565b60405180910390a25050565b6000818154811061038d57600080fd5b90600052602060002090600a02016000915090508060000180546103b09061188d565b80601f01602080910402602001604051908101604052809291908181526020018280546103dc9061188d565b80156104295780601f106103fe57610100808354040283529160200191610429565b820191906000526020600020905b81548152906001019060200180831161040c57829003601f168201915b50505050509080600101805461043e9061188d565b80601f016020809104026020016040519081016040528092919081815260200182805461046a9061188d565b80156104b75780601f1061048c576101008083540402835291602001916104b7565b820191906000526020600020905b81548152906001019060200180831161049a57829003601f168201915b5050505050908060020180546104cc9061188d565b80601f01602080910402602001604051908101604052809291908181526020018280546104f89061188d565b80156105455780601f1061051a57610100808354040283529160200191610545565b820191906000526020600020905b81548152906001019060200180831161052857829003601f168201915b50505050509080600301805461055a9061188d565b80601f01602080910402602001604051908101604052809291908181526020018280546105869061188d565b80156105d35780601f106105a8576101008083540402835291602001916105d3565b820191906000526020600020905b8154815290600101906020018083116105b657829003601f168201915b5050505050908060040180546105e89061188d565b80601f01602080910402602001604051908101604052809291908181526020018280546106149061188d565b80156106615780601f1061063657610100808354040283529160200191610661565b820191906000526020600020905b81548152906001019060200180831161064457829003601f168201915b5050505050908060050180546106769061188d565b80601f01602080910402602001604051908101604052809291908181526020018280546106a29061188d565b80156106ef5780601f106106c4576101008083540402835291602001916106ef565b820191906000526020600020905b8154815290600101906020018083116106d257829003601f168201915b5050505050908060060180546107049061188d565b80601f01602080910402602001604051908101604052809291908181526020018280546107309061188d565b801561077d5780601f106107525761010080835404028352916020019161077d565b820191906000526020600020905b81548152906001019060200180831161076057829003601f168201915b5050505050908060070180546107929061188d565b80601f01602080910402602001604051908101604052809291908181526020018280546107be9061188d565b801561080b5780601f106107e05761010080835404028352916020019161080b565b820191906000526020600020905b8154815290600101906020018083116107ee57829003601f168201915b5050505050908060080180546108209061188d565b80601f016020809104026020016040519081016040528092919081815260200182805461084c9061188d565b80156108995780601f1061086e57610100808354040283529160200191610899565b820191906000526020600020905b81548152906001019060200180831161087c57829003601f168201915b5050505050908060090180546108ae9061188d565b80601f01602080910402602001604051908101604052809291908181526020018280546108da9061188d565b80156109275780601f106108fc57610100808354040283529160200191610927565b820191906000526020600020905b81548152906001019060200180831161090a57829003601f168201915b505050505090508a565b60606000808054905067ffffffffffffffff81111561095357610952611037565b5b60405190808252806020026020018201604052801561098c57816020015b610979610fba565b8152602001906001900390816109715790505b50905060005b600080549050811015610fb257600081815481106109b3576109b261182f565b5b90600052602060002090600a0201604051806101400160405290816000820180546109dd9061188d565b80601f0160208091040260200160405190810160405280929190818152602001828054610a099061188d565b8015610a565780601f10610a2b57610100808354040283529160200191610a56565b820191906000526020600020905b815481529060010190602001808311610a3957829003601f168201915b50505050508152602001600182018054610a6f9061188d565b80601f0160208091040260200160405190810160405280929190818152602001828054610a9b9061188d565b8015610ae85780601f10610abd57610100808354040283529160200191610ae8565b820191906000526020600020905b815481529060010190602001808311610acb57829003601f168201915b50505050508152602001600282018054610b019061188d565b80601f0160208091040260200160405190810160405280929190818152602001828054610b2d9061188d565b8015610b7a5780601f10610b4f57610100808354040283529160200191610b7a565b820191906000526020600020905b815481529060010190602001808311610b5d57829003601f168201915b50505050508152602001600382018054610b939061188d565b80601f0160208091040260200160405190810160405280929190818152602001828054610bbf9061188d565b8015610c0c5780601f10610be157610100808354040283529160200191610c0c565b820191906000526020600020905b815481529060010190602001808311610bef57829003601f168201915b50505050508152602001600482018054610c259061188d565b80601f0160208091040260200160405190810160405280929190818152602001828054610c519061188d565b8015610c9e5780601f10610c7357610100808354040283529160200191610c9e565b820191906000526020600020905b815481529060010190602001808311610c8157829003601f168201915b50505050508152602001600582018054610cb79061188d565b80601f0160208091040260200160405190810160405280929190818152602001828054610ce39061188d565b8015610d305780601f10610d0557610100808354040283529160200191610d30565b820191906000526020600020905b815481529060010190602001808311610d1357829003601f168201915b50505050508152602001600682018054610d499061188d565b80601f0160208091040260200160405190810160405280929190818152602001828054610d759061188d565b8015610dc25780601f10610d9757610100808354040283529160200191610dc2565b820191906000526020600020905b815481529060010190602001808311610da557829003601f168201915b50505050508152602001600782018054610ddb9061188d565b80601f0160208091040260200160405190810160405280929190818152602001828054610e079061188d565b8015610e545780601f10610e2957610100808354040283529160200191610e54565b820191906000526020600020905b815481529060010190602001808311610e3757829003601f168201915b50505050508152602001600882018054610e6d9061188d565b80601f0160208091040260200160405190810160405280929190818152602001828054610e999061188d565b8015610ee65780601f10610ebb57610100808354040283529160200191610ee6565b820191906000526020600020905b815481529060010190602001808311610ec957829003601f168201915b50505050508152602001600982018054610eff9061188d565b80601f0160208091040260200160405190810160405280929190818152602001828054610f2b9061188d565b8015610f785780601f10610f4d57610100808354040283529160200191610f78565b820191906000526020600020905b815481529060010190602001808311610f5b57829003601f168201915b505050505081525050828281518110610f9457610f9361182f565b5b60200260200101819052508080610faa90611cda565b915050610992565b508091505090565b604051806101400160405280606081526020016060815260200160608152602001606081526020016060815260200160608152602001606081526020016060815260200160608152602001606081525090565b6000604051905090565b600080fd5b600080fd5b600080fd5b6000601f19601f8301169050919050565b7f4e487b7100000000000000000000000000000000000000000000000000000000600052604160045260246000fd5b61106f82611026565b810181811067ffffffffffffffff8211171561108e5761108d611037565b5b80604052505050565b60006110a161100d565b90506110ad8282611066565b919050565b600080fd5b600080fd5b600080fd5b600067ffffffffffffffff8211156110dc576110db611037565b5b6110e582611026565b9050602081019050919050565b82818337600083830152505050565b600061111461110f846110c1565b611097565b9050828152602081018484840111156111305761112f6110bc565b5b61113b8482856110f2565b509392505050565b600082601f830112611158576111576110b7565b5b8135611168848260208601611101565b91505092915050565b6000610140828403121561118857611187611021565b5b611193610140611097565b9050600082013567ffffffffffffffff8111156111b3576111b26110b2565b5b6111bf84828501611143565b600083015250602082013567ffffffffffffffff8111156111e3576111e26110b2565b5b6111ef84828501611143565b602083015250604082013567ffffffffffffffff811115611213576112126110b2565b5b61121f84828501611143565b604083015250606082013567ffffffffffffffff811115611243576112426110b2565b5b61124f84828501611143565b606083015250608082013567ffffffffffffffff811115611273576112726110b2565b5b61127f84828501611143565b60808301525060a082013567ffffffffffffffff8111156112a3576112a26110b2565b5b6112af84828501611143565b60a08301525060c082013567ffffffffffffffff8111156112d3576112d26110b2565b5b6112df84828501611143565b60c08301525060e082013567ffffffffffffffff811115611303576113026110b2565b5b61130f84828501611143565b60e08301525061010082013567ffffffffffffffff811115611334576113336110b2565b5b61134084828501611143565b6101008301525061012082013567ffffffffffffffff811115611366576113656110b2565b5b61137284828501611143565b6101208301525092915050565b6000819050919050565b6113928161137f565b811461139d57600080fd5b50565b6000813590506113af81611389565b92915050565b600080604083850312156113cc576113cb611017565b5b600083013567ffffffffffffffff8111156113ea576113e961101c565b5b6113f685828601611171565b9250506020611407858286016113a0565b9150509250929050565b60006020828403121561142757611426611017565b5b600082013567ffffffffffffffff8111156114455761144461101c565b5b61145184828501611171565b91505092915050565b6000602082840312156114705761146f611017565b5b600061147e848285016113a0565b91505092915050565b600081519050919050565b600082825260208201905092915050565b60005b838110156114c15780820151818401526020810190506114a6565b60008484015250505050565b60006114d882611487565b6114e28185611492565b93506114f28185602086016114a3565b6114fb81611026565b840191505092915050565b6000610140820190508181036000830152611521818d6114cd565b90508181036020830152611535818c6114cd565b90508181036040830152611549818b6114cd565b9050818103606083015261155d818a6114cd565b9050818103608083015261157181896114cd565b905081810360a083015261158581886114cd565b905081810360c083015261159981876114cd565b905081810360e08301526115ad81866114cd565b90508181036101008301526115c281856114cd565b90508181036101208301526115d781846114cd565b90509b9a5050505050505050505050565b600081519050919050565b600082825260208201905092915050565b6000819050602082019050919050565b600082825260208201905092915050565b600061163082611487565b61163a8185611614565b935061164a8185602086016114a3565b61165381611026565b840191505092915050565b600061014083016000830151848203600086015261167c8282611625565b915050602083015184820360208601526116968282611625565b915050604083015184820360408601526116b08282611625565b915050606083015184820360608601526116ca8282611625565b915050608083015184820360808601526116e48282611625565b91505060a083015184820360a08601526116fe8282611625565b91505060c083015184820360c08601526117188282611625565b91505060e083015184820360e08601526117328282611625565b91505061010083015184820361010086015261174e8282611625565b91505061012083015184820361012086015261176a8282611625565b9150508091505092915050565b6000611783838361165e565b905092915050565b6000602082019050919050565b60006117a3826115e8565b6117ad81856115f3565b9350836020820285016117bf85611604565b8060005b858110156117fb57848403895281516117dc8582611777565b94506117e78361178b565b925060208a019950506001810190506117c3565b50829750879550505050505092915050565b600060208201905081810360008301526118278184611798565b905092915050565b7f4e487b7100000000000000000000000000000000000000000000000000000000600052603260045260246000fd5b7f4e487b7100000000000000000000000000000000000000000000000000000000600052602260045260246000fd5b600060028204905060018216806118a557607f821691505b6020821081036118b8576118b761185e565b5b50919050565b60008190508160005260206000209050919050565b60006020601f8301049050919050565b600082821b905092915050565b6000600883026119207fffffffffffffffffffffffffffffffffffffffffffffffffffffffffffffffff826118e3565b61192a86836118e3565b95508019841693508086168417925050509392505050565b6000819050919050565b600061196761196261195d8461137f565b611942565b61137f565b9050919050565b6000819050919050565b6119818361194c565b61199561198d8261196e565b8484546118f0565b825550505050565b600090565b6119aa61199d565b6119b5818484611978565b505050565b5b818110156119d9576119ce6000826119a2565b6001810190506119bb565b5050565b601f821115611a1e576119ef816118be565b6119f8846118d3565b81016020851015611a07578190505b611a1b611a13856118d3565b8301826119ba565b50505b505050565b600082821c905092915050565b6000611a4160001984600802611a23565b1980831691505092915050565b6000611a5a8383611a30565b9150826002028217905092915050565b611a7382611487565b67ffffffffffffffff811115611a8c57611a8b611037565b5b611a96825461188d565b611aa18282856119dd565b600060209050601f831160018114611ad45760008415611ac2578287015190505b611acc8582611a4e565b865550611b34565b601f198416611ae2866118be565b60005b82811015611b0a57848901518255600182019150602085019450602081019050611ae5565b86831015611b275784890151611b23601f891682611a30565b8355505b6001600288020188555050505b505050505050565b7f4e487b7100000000000000000000000000000000000000000000000000000000600052601160045260246000fd5b6000611b768261137f565b9150611b818361137f565b9250828201905080821115611b9957611b98611b3c565b5b92915050565b6000610140830160008301518482036000860152611bbd8282611625565b91505060208301518482036020860152611bd78282611625565b91505060408301518482036040860152611bf18282611625565b91505060608301518482036060860152611c0b8282611625565b91505060808301518482036080860152611c258282611625565b91505060a083015184820360a0860152611c3f8282611625565b91505060c083015184820360c0860152611c598282611625565b91505060e083015184820360e0860152611c738282611625565b915050610100830151848203610100860152611c8f8282611625565b915050610120830151848203610120860152611cab8282611625565b9150508091505092915050565b60006020820190508181036000830152611cd28184611b9f565b905092915050565b6000611ce58261137f565b91507fffffffffffffffffffffffffffffffffffffffffffffffffffffffffffffffff8203611d1757611d16611b3c565b5b60018201905091905056fea26469706673582212206d7da49a3c69c4c78a1b77920b7746b6df68917dc2267f8593724e9219a22a2c64736f6c63430008110033",
  "immutableReferences": {},
  "source": "// SPDX-License-Identifier: MIT\r\npragma solidity >=0.4.22 <0.9.0;\r\n\r\ncontract ProductFactory {\r\n\r\n    event SubmitProduct(Product product, uint indexed index);\r\n\r\n    struct Product {\r\n        string id;\r\n        string code;\r\n        string name;\r\n        string agency;\r\n        string number;\r\n        string price;\r\n        string dueDate;\r\n        string category;\r\n        string description;\r\n        string employee; \r\n    }\r\n\r\n    Product[] public products;\r\n\r\n    function createProduct(Product memory product) public {\r\n        products.push(product);\r\n        uint index = products.length; \r\n        emit SubmitProduct(product, index);\r\n    }\r\n\r\n    function getAllProduct() public view returns (Product[] memory) {\r\n        Product[] memory result = new Product[](products.length);\r\n        for (uint i = 0; i < products.length; i++) {\r\n            result[i] = products[i];\r\n        }\r\n        return result;\r\n    }\r\n\r\n    function updateProduct(Product memory product, uint index) public {\r\n        products[index] = product;\r\n        emit SubmitProduct(product, index+1);\r\n    }\r\n}\r\n",
  "sourcePath": "D:\\work_space\\blockchain\\Manage_materials_blockchain\\contracts\\ProductFactory.sol",
  "compiler": {
    "name": "solc",
    "version": "0.8.17+commit.8df45f5f.Emscripten.clang"
  },
  "schemaVersion": "3.4.10",
  "updatedAt": "2022-12-06T12:13:42.119Z",
  "networkType": "ethereum",
  "devdoc": {
    "kind": "dev",
    "methods": {},
    "version": 1
  },
  "userdoc": {
    "kind": "user",
    "methods": {},
    "version": 1
  }
}